{
  "_format": "hh-sol-artifact-1",
  "contractName": "EventProof",
  "sourceName": "contracts/EventProof.sol",
  "abi": [
    {
      "inputs": [],
      "stateMutability": "nonpayable",
      "type": "constructor"
    },
    {
      "anonymous": false,
      "inputs": [
        {
          "indexed": true,
          "internalType": "address",
          "name": "owner",
          "type": "address"
        },
        {
          "indexed": true,
          "internalType": "address",
          "name": "approved",
          "type": "address"
        },
        {
          "indexed": true,
          "internalType": "uint256",
          "name": "tokenId",
          "type": "uint256"
        }
      ],
      "name": "Approval",
      "type": "event"
    },
    {
      "anonymous": false,
      "inputs": [
        {
          "indexed": true,
          "internalType": "address",
          "name": "owner",
          "type": "address"
        },
        {
          "indexed": true,
          "internalType": "address",
          "name": "operator",
          "type": "address"
        },
        {
          "indexed": false,
          "internalType": "bool",
          "name": "approved",
          "type": "bool"
        }
      ],
      "name": "ApprovalForAll",
      "type": "event"
    },
    {
      "anonymous": false,
      "inputs": [
        {
          "indexed": false,
          "internalType": "uint256",
          "name": "_fromTokenId",
          "type": "uint256"
        },
        {
          "indexed": false,
          "internalType": "uint256",
          "name": "_toTokenId",
          "type": "uint256"
        }
      ],
      "name": "BatchMetadataUpdate",
      "type": "event"
    },
    {
      "anonymous": false,
      "inputs": [
        {
          "indexed": false,
          "internalType": "uint256",
          "name": "_tokenId",
          "type": "uint256"
        }
      ],
      "name": "MetadataUpdate",
      "type": "event"
    },
    {
      "anonymous": false,
      "inputs": [
        {
          "indexed": true,
          "internalType": "address",
          "name": "previousOwner",
          "type": "address"
        },
        {
          "indexed": true,
          "internalType": "address",
          "name": "newOwner",
          "type": "address"
        }
      ],
      "name": "OwnershipTransferred",
      "type": "event"
    },
    {
      "anonymous": false,
      "inputs": [
        {
          "indexed": true,
          "internalType": "uint256",
          "name": "photoId",
          "type": "uint256"
        }
      ],
      "name": "PhotoDelisted",
      "type": "event"
    },
    {
      "anonymous": false,
      "inputs": [
        {
          "indexed": true,
          "internalType": "uint256",
          "name": "photoId",
          "type": "uint256"
        },
        {
          "indexed": true,
          "internalType": "address",
          "name": "photographer",
          "type": "address"
        },
        {
          "indexed": false,
          "internalType": "bytes32",
          "name": "fileHash",
          "type": "bytes32"
        },
        {
          "indexed": false,
          "internalType": "uint256",
          "name": "price",
          "type": "uint256"
        },
        {
          "indexed": false,
          "internalType": "string",
          "name": "metadataURI",
          "type": "string"
        }
      ],
      "name": "PhotoListed",
      "type": "event"
    },
    {
      "anonymous": false,
      "inputs": [
        {
          "indexed": true,
          "internalType": "uint256",
          "name": "photoId",
          "type": "uint256"
        },
        {
          "indexed": true,
          "internalType": "address",
          "name": "buyer",
          "type": "address"
        },
        {
          "indexed": true,
          "internalType": "uint256",
          "name": "tokenId",
          "type": "uint256"
        },
        {
          "indexed": false,
          "internalType": "uint256",
          "name": "price",
          "type": "uint256"
        }
      ],
      "name": "PhotoPurchased",
      "type": "event"
    },
    {
      "anonymous": false,
      "inputs": [
        {
          "indexed": true,
          "internalType": "uint256",
          "name": "photoId",
          "type": "uint256"
        },
        {
          "indexed": false,
          "internalType": "uint256",
          "name": "newPrice",
          "type": "uint256"
        }
      ],
      "name": "PriceUpdated",
      "type": "event"
    },
    {
      "anonymous": false,
      "inputs": [
        {
          "indexed": true,
          "internalType": "address",
          "name": "from",
          "type": "address"
        },
        {
          "indexed": true,
          "internalType": "address",
          "name": "to",
          "type": "address"
        },
        {
          "indexed": true,
          "internalType": "uint256",
          "name": "tokenId",
          "type": "uint256"
        }
      ],
      "name": "Transfer",
      "type": "event"
    },
    {
      "inputs": [
        {
          "internalType": "address",
          "name": "to",
          "type": "address"
        },
        {
          "internalType": "uint256",
          "name": "tokenId",
          "type": "uint256"
        }
      ],
      "name": "approve",
      "outputs": [],
      "stateMutability": "nonpayable",
      "type": "function"
    },
    {
      "inputs": [
        {
          "internalType": "address",
          "name": "owner",
          "type": "address"
        }
      ],
      "name": "balanceOf",
      "outputs": [
        {
          "internalType": "uint256",
          "name": "",
          "type": "uint256"
        }
      ],
      "stateMutability": "view",
      "type": "function"
    },
    {
      "inputs": [
        {
          "internalType": "uint256",
          "name": "photoId",
          "type": "uint256"
        }
      ],
      "name": "delistPhoto",
      "outputs": [],
      "stateMutability": "nonpayable",
      "type": "function"
    },
    {
      "inputs": [
        {
          "internalType": "uint256",
          "name": "offset",
          "type": "uint256"
        },
        {
          "internalType": "uint256",
          "name": "limit",
          "type": "uint256"
        }
      ],
      "name": "getActivePhotos",
      "outputs": [
        {
          "components": [
            {
              "internalType": "uint256",
              "name": "id",
              "type": "uint256"
            },
            {
              "internalType": "address",
              "name": "photographer",
              "type": "address"
            },
            {
              "internalType": "string",
              "name": "metadataURI",
              "type": "string"
            },
            {
              "internalType": "bytes32",
              "name": "fileHash",
              "type": "bytes32"
            },
            {
              "internalType": "uint256",
              "name": "price",
              "type": "uint256"
            },
            {
              "internalType": "bool",
              "name": "active",
              "type": "bool"
            },
            {
              "internalType": "uint256",
              "name": "salesCount",
              "type": "uint256"
            },
            {
              "internalType": "uint256",
              "name": "totalEarned",
              "type": "uint256"
            }
          ],
          "internalType": "struct EventProof.Photo[]",
          "name": "result",
          "type": "tuple[]"
        },
        {
          "internalType": "uint256",
          "name": "total",
          "type": "uint256"
        }
      ],
      "stateMutability": "view",
      "type": "function"
    },
    {
      "inputs": [],
      "name": "getAllPhotoIds",
      "outputs": [
        {
          "internalType": "uint256[]",
          "name": "",
          "type": "uint256[]"
        }
      ],
      "stateMutability": "view",
      "type": "function"
    },
    {
      "inputs": [
        {
          "internalType": "uint256",
          "name": "tokenId",
          "type": "uint256"
        }
      ],
      "name": "getApproved",
      "outputs": [
        {
          "internalType": "address",
          "name": "",
          "type": "address"
        }
      ],
      "stateMutability": "view",
      "type": "function"
    },
    {
      "inputs": [
        {
          "internalType": "uint256",
          "name": "photoId",
          "type": "uint256"
        },
        {
          "internalType": "address",
          "name": "buyer",
          "type": "address"
        }
      ],
      "name": "getLicenceToken",
      "outputs": [
        {
          "internalType": "uint256",
          "name": "",
          "type": "uint256"
        }
      ],
      "stateMutability": "view",
      "type": "function"
    },
    {
      "inputs": [],
      "name": "getSessionStats",
      "outputs": [
        {
          "internalType": "uint256",
          "name": "totalSales",
          "type": "uint256"
        },
        {
          "internalType": "uint256",
          "name": "totalEarned",
          "type": "uint256"
        },
        {
          "internalType": "uint256",
          "name": "sessionDuration",
          "type": "uint256"
        }
      ],
      "stateMutability": "view",
      "type": "function"
    },
    {
      "inputs": [
        {
          "internalType": "uint256",
          "name": "photoId",
          "type": "uint256"
        },
        {
          "internalType": "address",
          "name": "buyer",
          "type": "address"
        }
      ],
      "name": "hasLicence",
      "outputs": [
        {
          "internalType": "bool",
          "name": "",
          "type": "bool"
        }
      ],
      "stateMutability": "view",
      "type": "function"
    },
    {
      "inputs": [
        {
          "internalType": "address",
          "name": "owner",
          "type": "address"
        },
        {
          "internalType": "address",
          "name": "operator",
          "type": "address"
        }
      ],
      "name": "isApprovedForAll",
      "outputs": [
        {
          "internalType": "bool",
          "name": "",
          "type": "bool"
        }
      ],
      "stateMutability": "view",
      "type": "function"
    },
    {
      "inputs": [
        {
          "internalType": "string",
          "name": "uri",
          "type": "string"
        },
        {
          "internalType": "bytes32",
          "name": "fileHash",
          "type": "bytes32"
        },
        {
          "internalType": "uint256",
          "name": "price",
          "type": "uint256"
        }
      ],
      "name": "listPhoto",
      "outputs": [
        {
          "internalType": "uint256",
          "name": "photoId",
          "type": "uint256"
        }
      ],
      "stateMutability": "nonpayable",
      "type": "function"
    },
    {
      "inputs": [],
      "name": "name",
      "outputs": [
        {
          "internalType": "string",
          "name": "",
          "type": "string"
        }
      ],
      "stateMutability": "view",
      "type": "function"
    },
    {
      "inputs": [],
      "name": "owner",
      "outputs": [
        {
          "internalType": "address",
          "name": "",
          "type": "address"
        }
      ],
      "stateMutability": "view",
      "type": "function"
    },
    {
      "inputs": [
        {
          "internalType": "uint256",
          "name": "tokenId",
          "type": "uint256"
        }
      ],
      "name": "ownerOf",
      "outputs": [
        {
          "internalType": "address",
          "name": "",
          "type": "address"
        }
      ],
      "stateMutability": "view",
      "type": "function"
    },
    {
      "inputs": [
        {
          "internalType": "uint256",
          "name": "",
          "type": "uint256"
        }
      ],
      "name": "photos",
      "outputs": [
        {
          "internalType": "uint256",
          "name": "id",
          "type": "uint256"
        },
        {
          "internalType": "address",
          "name": "photographer",
          "type": "address"
        },
        {
          "internalType": "string",
          "name": "metadataURI",
          "type": "string"
        },
        {
          "internalType": "bytes32",
          "name": "fileHash",
          "type": "bytes32"
        },
        {
          "internalType": "uint256",
          "name": "price",
          "type": "uint256"
        },
        {
          "internalType": "bool",
          "name": "active",
          "type": "bool"
        },
        {
          "internalType": "uint256",
          "name": "salesCount",
          "type": "uint256"
        },
        {
          "internalType": "uint256",
          "name": "totalEarned",
          "type": "uint256"
        }
      ],
      "stateMutability": "view",
      "type": "function"
    },
    {
      "inputs": [
        {
          "internalType": "uint256",
          "name": "photoId",
          "type": "uint256"
        }
      ],
      "name": "purchasePhoto",
      "outputs": [
        {
          "internalType": "uint256",
          "name": "tokenId",
          "type": "uint256"
        }
      ],
      "stateMutability": "payable",
      "type": "function"
    },
    {
      "inputs": [
        {
          "internalType": "uint256",
          "name": "",
          "type": "uint256"
        },
        {
          "internalType": "address",
          "name": "",
          "type": "address"
        }
      ],
      "name": "purchaseRecord",
      "outputs": [
        {
          "internalType": "uint256",
          "name": "",
          "type": "uint256"
        }
      ],
      "stateMutability": "view",
      "type": "function"
    },
    {
      "inputs": [],
      "name": "renounceOwnership",
      "outputs": [],
      "stateMutability": "nonpayable",
      "type": "function"
    },
    {
      "inputs": [
        {
          "internalType": "address",
          "name": "from",
          "type": "address"
        },
        {
          "internalType": "address",
          "name": "to",
          "type": "address"
        },
        {
          "internalType": "uint256",
          "name": "tokenId",
          "type": "uint256"
        }
      ],
      "name": "safeTransferFrom",
      "outputs": [],
      "stateMutability": "nonpayable",
      "type": "function"
    },
    {
      "inputs": [
        {
          "internalType": "address",
          "name": "from",
          "type": "address"
        },
        {
          "internalType": "address",
          "name": "to",
          "type": "address"
        },
        {
          "internalType": "uint256",
          "name": "tokenId",
          "type": "uint256"
        },
        {
          "internalType": "bytes",
          "name": "data",
          "type": "bytes"
        }
      ],
      "name": "safeTransferFrom",
      "outputs": [],
      "stateMutability": "nonpayable",
      "type": "function"
    },
    {
      "inputs": [
        {
          "internalType": "address",
          "name": "operator",
          "type": "address"
        },
        {
          "internalType": "bool",
          "name": "approved",
          "type": "bool"
        }
      ],
      "name": "setApprovalForAll",
      "outputs": [],
      "stateMutability": "nonpayable",
      "type": "function"
    },
    {
      "inputs": [
        {
          "internalType": "bytes4",
          "name": "interfaceId",
          "type": "bytes4"
        }
      ],
      "name": "supportsInterface",
      "outputs": [
        {
          "internalType": "bool",
          "name": "",
          "type": "bool"
        }
      ],
      "stateMutability": "view",
      "type": "function"
    },
    {
      "inputs": [],
      "name": "symbol",
      "outputs": [
        {
          "internalType": "string",
          "name": "",
          "type": "string"
        }
      ],
      "stateMutability": "view",
      "type": "function"
    },
    {
      "inputs": [
        {
          "internalType": "uint256",
          "name": "",
          "type": "uint256"
        }
      ],
      "name": "tokenToPhoto",
      "outputs": [
        {
          "internalType": "uint256",
          "name": "",
          "type": "uint256"
        }
      ],
      "stateMutability": "view",
      "type": "function"
    },
    {
      "inputs": [
        {
          "internalType": "uint256",
          "name": "tokenId",
          "type": "uint256"
        }
      ],
      "name": "tokenURI",
      "outputs": [
        {
          "internalType": "string",
          "name": "",
          "type": "string"
        }
      ],
      "stateMutability": "view",
      "type": "function"
    },
    {
      "inputs": [
        {
          "internalType": "address",
          "name": "from",
          "type": "address"
        },
        {
          "internalType": "address",
          "name": "to",
          "type": "address"
        },
        {
          "internalType": "uint256",
          "name": "tokenId",
          "type": "uint256"
        }
      ],
      "name": "transferFrom",
      "outputs": [],
      "stateMutability": "nonpayable",
      "type": "function"
    },
    {
      "inputs": [
        {
          "internalType": "address",
          "name": "newOwner",
          "type": "address"
        }
      ],
      "name": "transferOwnership",
      "outputs": [],
      "stateMutability": "nonpayable",
      "type": "function"
    },
    {
      "inputs": [
        {
          "internalType": "uint256",
          "name": "photoId",
          "type": "uint256"
        },
        {
          "internalType": "uint256",
          "name": "newPrice",
          "type": "uint256"
        }
      ],
      "name": "updatePrice",
      "outputs": [],
      "stateMutability": "nonpayable",
      "type": "function"
    }
  ],
  "bytecode": "0x60806040523480156200001157600080fd5b506040518060400160405280600a81526020016922bb32b73a283937b7b360b11b8152506040518060400160405280600481526020016322ab282360e11b8152508160009081620000639190620001a5565b506001620000728282620001a5565b5050506200008f62000089620000a860201b60201c565b620000ac565b60016008819055426010556009819055600a5562000271565b3390565b600780546001600160a01b038381166001600160a01b0319831681179093556040519116919082907f8be0079c531659141344cd1fd0a4f28419497f9722a3daafe3b4186f6b6457e090600090a35050565b634e487b7160e01b600052604160045260246000fd5b600181811c908216806200012957607f821691505b6020821081036200014a57634e487b7160e01b600052602260045260246000fd5b50919050565b601f821115620001a0576000816000526020600020601f850160051c810160208610156200017b5750805b601f850160051c820191505b818110156200019c5782815560010162000187565b5050505b505050565b81516001600160401b03811115620001c157620001c1620000fe565b620001d981620001d2845462000114565b8462000150565b602080601f831160018114620002115760008415620001f85750858301515b600019600386901b1c1916600185901b1785556200019c565b600085815260208120601f198616915b82811015620002425788860151825594840194600190910190840162000221565b5085821015620002615787850151600019600388901b60f8161c191681555b5050505050600190811b01905550565b612a4d80620002816000396000f3fe6080604052600436106101b75760003560e01c806395d89b41116100ec578063b88d4fde1161008a578063def2ceb711610064578063def2ceb714610577578063e985e9c5146105a4578063ec083ce7146105ed578063f2fde38b1461060057600080fd5b8063b88d4fde14610509578063c87b56dd14610529578063d0ca2ebb1461054957600080fd5b8063a22cb465116100c6578063a22cb46514610473578063a45bec8c14610493578063a918fece146104b5578063af2a5d6f146104d557600080fd5b806395d89b41146103f65780639a2dda5f1461040b5780639ed4c2701461043b57600080fd5b806342842e0e11610159578063715018a611610133578063715018a61461035e5780637476963f1461037357806382367b2d146103b85780638da5cb5b146103d857600080fd5b806342842e0e146102fe5780636352211e1461031e57806370a082311461033e57600080fd5b8063095ea7b311610195578063095ea7b31461024b5780631290cda11461026d57806323b872dd1461029b5780632e119000146102bb57600080fd5b806301ffc9a7146101bc57806306fdde03146101f1578063081812fc14610213575b600080fd5b3480156101c857600080fd5b506101dc6101d73660046121fc565b610620565b60405190151581526020015b60405180910390f35b3480156101fd57600080fd5b5061020661064b565b6040516101e89190612269565b34801561021f57600080fd5b5061023361022e36600461227c565b6106dd565b6040516001600160a01b0390911681526020016101e8565b34801561025757600080fd5b5061026b6102663660046122ac565b610704565b005b34801561027957600080fd5b5061028d6102883660046122d6565b61081e565b6040519081526020016101e8565b3480156102a757600080fd5b5061026b6102b6366004612355565b610aa8565b3480156102c757600080fd5b5061028d6102d6366004612391565b6000918252600d602090815260408084206001600160a01b0393909316845291905290205490565b34801561030a57600080fd5b5061026b610319366004612355565b610ad9565b34801561032a57600080fd5b5061023361033936600461227c565b610af4565b34801561034a57600080fd5b5061028d6103593660046123bd565b610b54565b34801561036a57600080fd5b5061026b610bda565b34801561037f57600080fd5b506101dc61038e366004612391565b6000918252600d602090815260408084206001600160a01b03939093168452919052902054151590565b3480156103c457600080fd5b5061026b6103d33660046123d8565b610bee565b3480156103e457600080fd5b506007546001600160a01b0316610233565b34801561040257600080fd5b50610206610cf4565b34801561041757600080fd5b50610420610d03565b604080519384526020840192909252908201526060016101e8565b34801561044757600080fd5b5061028d610456366004612391565b600d60209081526000928352604080842090915290825290205481565b34801561047f57600080fd5b5061026b61048e3660046123fa565b610d20565b34801561049f57600080fd5b506104a8610d2f565b6040516101e89190612436565b3480156104c157600080fd5b5061026b6104d036600461227c565b610d86565b3480156104e157600080fd5b506104f56104f036600461227c565b610e2b565b6040516101e898979695949392919061247a565b34801561051557600080fd5b5061026b6105243660046124e7565b610f02565b34801561053557600080fd5b5061020661054436600461227c565b610f3a565b34801561055557600080fd5b506105696105643660046123d8565b61104a565b6040516101e89291906125c3565b34801561058357600080fd5b5061028d61059236600461227c565b600c6020526000908152604090205481565b3480156105b057600080fd5b506101dc6105bf36600461268e565b6001600160a01b03918216600090815260056020908152604080832093909416825291909152205460ff1690565b61028d6105fb36600461227c565b611329565b34801561060c57600080fd5b5061026b61061b3660046123bd565b611692565b60006001600160e01b03198216632483248360e11b148061064557506106458261170b565b92915050565b60606000805461065a906126b8565b80601f0160208091040260200160405190810160405280929190818152602001828054610686906126b8565b80156106d35780601f106106a8576101008083540402835291602001916106d3565b820191906000526020600020905b8154815290600101906020018083116106b657829003601f168201915b5050505050905090565b60006106e88261175b565b506000908152600460205260409020546001600160a01b031690565b600061070f82610af4565b9050806001600160a01b0316836001600160a01b0316036107815760405162461bcd60e51b815260206004820152602160248201527f4552433732313a20617070726f76616c20746f2063757272656e74206f776e656044820152603960f91b60648201526084015b60405180910390fd5b336001600160a01b038216148061079d575061079d81336105bf565b61080f5760405162461bcd60e51b815260206004820152603d60248201527f4552433732313a20617070726f76652063616c6c6572206973206e6f7420746f60448201527f6b656e206f776e6572206f7220617070726f76656420666f7220616c6c0000006064820152608401610778565b61081983836117ba565b505050565b6000610828611828565b8361086d5760405162461bcd60e51b81526020600482015260156024820152744576656e7450726f6f663a20656d7074792055524960581b6044820152606401610778565b826108ba5760405162461bcd60e51b815260206004820152601a60248201527f4576656e7450726f6f663a20656d7074792066696c65486173680000000000006044820152606401610778565b6000821161090a5760405162461bcd60e51b815260206004820152601d60248201527f4576656e7450726f6f663a207072696365206d757374206265203e20300000006044820152606401610778565b600a805490600061091a83612708565b919050559050604051806101000160405280828152602001336001600160a01b0316815260200186868080601f0160208091040260200160405190810160405280939291908181526020018383808284376000920182905250938552505050602080830187905260408084018790526001606085018190526080850184905260a0909401839052858352600b825291829020845181559084015192810180546001600160a01b0319166001600160a01b039094169390931790925582015160028201906109e79082612771565b50606082015160038201556080820151600482015560a082015160058201805460ff191691151591909117905560c0820151600682015560e090910151600790910155601180546001810182556000919091527f31ecc21a745e3968a04e9570e4425bc18fa8019c68028196b546d1669c200c6801819055604051339082907e8877a2f43a6c3992994811c7d4633d27194696da15567eabae521f28e765c990610a9890879087908b908b90612831565b60405180910390a3949350505050565b610ab23382611882565b610ace5760405162461bcd60e51b81526004016107789061286e565b610819838383611900565b61081983838360405180602001604052806000815250610f02565b6000818152600260205260408120546001600160a01b0316806106455760405162461bcd60e51b8152602060048201526018602482015277115490cdcc8c4e881a5b9d985b1a59081d1bdad95b88125160421b6044820152606401610778565b60006001600160a01b038216610bbe5760405162461bcd60e51b815260206004820152602960248201527f4552433732313a2061646472657373207a65726f206973206e6f7420612076616044820152683634b21037bbb732b960b91b6064820152608401610778565b506001600160a01b031660009081526003602052604090205490565b610be2611828565b610bec6000611a64565b565b610bf6611828565b6000828152600b602052604090206005015460ff16610c505760405162461bcd60e51b81526020600482015260166024820152754576656e7450726f6f663a206e6f742061637469766560501b6044820152606401610778565b60008111610ca05760405162461bcd60e51b815260206004820152601d60248201527f4576656e7450726f6f663a207072696365206d757374206265203e20300000006044820152606401610778565b6000828152600b6020526040908190206004018290555182907f945c1c4e99aa89f648fbfe3df471b916f719e16d960fcec0737d4d56bd69683890610ce89084815260200190565b60405180910390a25050565b60606001805461065a906126b8565b600e54600f54601054600090610d1990426128bb565b9050909192565b610d2b338383611ab6565b5050565b606060118054806020026020016040519081016040528092919081815260200182805480156106d357602002820191906000526020600020905b815481526020019060010190808311610d69575050505050905090565b610d8e611828565b6000818152600b602052604090206005015460ff16610de85760405162461bcd60e51b81526020600482015260166024820152754576656e7450726f6f663a206e6f742061637469766560501b6044820152606401610778565b6000818152600b6020526040808220600501805460ff191690555182917f0229e239f26a7cebada756241a96f33592552b840fbabd7aa26bd26732d2342b91a250565b600b6020526000908152604090208054600182015460028301805492936001600160a01b0390921692610e5d906126b8565b80601f0160208091040260200160405190810160405280929190818152602001828054610e89906126b8565b8015610ed65780601f10610eab57610100808354040283529160200191610ed6565b820191906000526020600020905b815481529060010190602001808311610eb957829003601f168201915b50505060038401546004850154600586015460068701546007909701549596929591945060ff16925088565b610f0c3383611882565b610f285760405162461bcd60e51b81526004016107789061286e565b610f3484848484611b84565b50505050565b6060610f458261175b565b60008281526006602052604081208054610f5e906126b8565b80601f0160208091040260200160405190810160405280929190818152602001828054610f8a906126b8565b8015610fd75780601f10610fac57610100808354040283529160200191610fd7565b820191906000526020600020905b815481529060010190602001808311610fba57829003601f168201915b505050505090506000610ff560408051602081019091526000815290565b90508051600003611007575092915050565b8151156110395780826040516020016110219291906128ce565b60405160208183030381529060405292505050919050565b61104284611bb7565b949350505050565b6060600080805b6011548110156110af57600b600060118381548110611072576110726128fd565b6000918252602080832090910154835282019290925260400190206005015460ff16156110a757816110a381612708565b9250505b600101611051565b5080915080851015806110c0575083155b156110ff5760408051600080825260208201909252906110f6565b6110e3612193565b8152602001906001900390816110db5790505b50925050611322565b60008161110c8688612913565b116111175784611121565b61112186836128bb565b90508067ffffffffffffffff81111561113c5761113c6124d1565b60405190808252806020026020018201604052801561117557816020015b611162612193565b81526020019060019003908161115a5790505b50935060008060005b6011548110801561118e57508383105b1561131c576000600b6000601184815481106111ac576111ac6128fd565b600091825260208083209091015483528201929092526040019020600581015490915060ff1615611309578983106112fb5760408051610100810182528254815260018301546001600160a01b03166020820152600283018054919284929084019190611218906126b8565b80601f0160208091040260200160405190810160405280929190818152602001828054611244906126b8565b80156112915780601f1061126657610100808354040283529160200191611291565b820191906000526020600020905b81548152906001019060200180831161127457829003601f168201915b50505091835250506003820154602082015260048201546040820152600582015460ff16151560608201526006820154608082015260079091015460a09091015288856112dd81612708565b9650815181106112ef576112ef6128fd565b60200260200101819052505b8261130581612708565b9350505b508061131481612708565b91505061117e565b50505050505b9250929050565b6000611333611c2b565b6000828152600b60205260409020600581015460ff166113955760405162461bcd60e51b815260206004820152601c60248201527f4576656e7450726f6f663a2070686f746f206e6f7420616374697665000000006044820152606401610778565b806004015434146113e85760405162461bcd60e51b815260206004820152601d60248201527f4576656e7450726f6f663a20696e636f7272656374207061796d656e740000006044820152606401610778565b6000838152600d602090815260408083203384529091529020541561144f5760405162461bcd60e51b815260206004820152601d60248201527f4576656e7450726f6f663a20616c7265616479207075726368617365640000006044820152606401610778565b6009805490600061145f83612708565b91905055915061146f3383611c84565b61150582826002018054611482906126b8565b80601f01602080910402602001604051908101604052809291908181526020018280546114ae906126b8565b80156114fb5780601f106114d0576101008083540402835291602001916114fb565b820191906000526020600020905b8154815290600101906020018083116114de57829003601f168201915b5050505050611c9e565b6000828152600c60209081526040808320869055858352600d825280832033845290915281208390556006820180549161153e83612708565b9190505550348160070160008282546115579190612913565b9091555050600e805490600061156c83612708565b919050555034600e60010160008282546115869190612913565b909155505060018101546040516000916001600160a01b03169034908381818185875af1925050503d80600081146115da576040519150601f19603f3d011682016040523d82523d6000602084013e6115df565b606091505b505090508061163c5760405162461bcd60e51b815260206004820152602360248201527f4576656e7450726f6f663a207061796d656e74207472616e73666572206661696044820152621b195960ea1b6064820152608401610778565b82336001600160a01b0316857f1a30540603487b62ac5888decf9a8d3c4d50ab1b6d2df81b99509ebd1c14ba193460405161167991815260200190565b60405180910390a4505061168d6001600855565b919050565b61169a611828565b6001600160a01b0381166116ff5760405162461bcd60e51b815260206004820152602660248201527f4f776e61626c653a206e6577206f776e657220697320746865207a65726f206160448201526564647265737360d01b6064820152608401610778565b61170881611a64565b50565b60006001600160e01b031982166380ac58cd60e01b148061173c57506001600160e01b03198216635b5e139f60e01b145b8061064557506301ffc9a760e01b6001600160e01b0319831614610645565b6000818152600260205260409020546001600160a01b03166117085760405162461bcd60e51b8152602060048201526018602482015277115490cdcc8c4e881a5b9d985b1a59081d1bdad95b88125160421b6044820152606401610778565b600081815260046020526040902080546001600160a01b0319166001600160a01b03841690811790915581906117ef82610af4565b6001600160a01b03167f8c5be1e5ebec7d5bd14f71427d1e84f3dd0314c0f7b2291e5b200ac8c7c3b92560405160405180910390a45050565b6007546001600160a01b03163314610bec5760405162461bcd60e51b815260206004820181905260248201527f4f776e61626c653a2063616c6c6572206973206e6f7420746865206f776e65726044820152606401610778565b60008061188e83610af4565b9050806001600160a01b0316846001600160a01b031614806118d557506001600160a01b0380821660009081526005602090815260408083209388168352929052205460ff165b806110425750836001600160a01b03166118ee846106dd565b6001600160a01b031614949350505050565b826001600160a01b031661191382610af4565b6001600160a01b0316146119395760405162461bcd60e51b815260040161077890612926565b6001600160a01b03821661199b5760405162461bcd60e51b8152602060048201526024808201527f4552433732313a207472616e7366657220746f20746865207a65726f206164646044820152637265737360e01b6064820152608401610778565b826001600160a01b03166119ae82610af4565b6001600160a01b0316146119d45760405162461bcd60e51b815260040161077890612926565b600081815260046020908152604080832080546001600160a01b03199081169091556001600160a01b0387811680865260038552838620805460001901905590871680865283862080546001019055868652600290945282852080549092168417909155905184937fddf252ad1be2c89b69c2b068fc378daa952ba7f163c4a11628f55a4df523b3ef91a4505050565b600780546001600160a01b038381166001600160a01b0319831681179093556040519116919082907f8be0079c531659141344cd1fd0a4f28419497f9722a3daafe3b4186f6b6457e090600090a35050565b816001600160a01b0316836001600160a01b031603611b175760405162461bcd60e51b815260206004820152601960248201527f4552433732313a20617070726f766520746f2063616c6c6572000000000000006044820152606401610778565b6001600160a01b03838116600081815260056020908152604080832094871680845294825291829020805460ff191686151590811790915591519182527f17307eab39ab6107e8899845ad3d59bd9653f200f220920489ca2b5937696c31910160405180910390a3505050565b611b8f848484611900565b611b9b84848484611d69565b610f345760405162461bcd60e51b81526004016107789061296b565b6060611bc28261175b565b6000611bd960408051602081019091526000815290565b90506000815111611bf95760405180602001604052806000815250611c24565b80611c0384611e6a565b604051602001611c149291906128ce565b6040516020818303038152906040525b9392505050565b600260085403611c7d5760405162461bcd60e51b815260206004820152601f60248201527f5265656e7472616e637947756172643a207265656e7472616e742063616c6c006044820152606401610778565b6002600855565b610d2b828260405180602001604052806000815250611efd565b6000828152600260205260409020546001600160a01b0316611d195760405162461bcd60e51b815260206004820152602e60248201527f45524337323155524953746f726167653a2055524920736574206f66206e6f6e60448201526d32bc34b9ba32b73a103a37b5b2b760911b6064820152608401610778565b6000828152600660205260409020611d318282612771565b506040518281527ff8e1a15aba9398e019f0b49df1a4fde98ee17ae345cb5f6b5e2c27f5033e8ce79060200160405180910390a15050565b60006001600160a01b0384163b15611e5f57604051630a85bd0160e11b81526001600160a01b0385169063150b7a0290611dad9033908990889088906004016129bd565b6020604051808303816000875af1925050508015611de8575060408051601f3d908101601f19168201909252611de5918101906129fa565b60015b611e45573d808015611e16576040519150601f19603f3d011682016040523d82523d6000602084013e611e1b565b606091505b508051600003611e3d5760405162461bcd60e51b81526004016107789061296b565b805181602001fd5b6001600160e01b031916630a85bd0160e11b149050611042565b506001949350505050565b60606000611e7783611f30565b600101905060008167ffffffffffffffff811115611e9757611e976124d1565b6040519080825280601f01601f191660200182016040528015611ec1576020820181803683370190505b5090508181016020015b600019016f181899199a1a9b1b9c1cb0b131b232b360811b600a86061a8153600a8504945084611ecb57509392505050565b611f078383612008565b611f146000848484611d69565b6108195760405162461bcd60e51b81526004016107789061296b565b60008072184f03e93ff9f4daa797ed6e38ed64bf6a1f0160401b8310611f6f5772184f03e93ff9f4daa797ed6e38ed64bf6a1f0160401b830492506040015b6d04ee2d6d415b85acef81000000008310611f9b576d04ee2d6d415b85acef8100000000830492506020015b662386f26fc100008310611fb957662386f26fc10000830492506010015b6305f5e1008310611fd1576305f5e100830492506008015b6127108310611fe557612710830492506004015b60648310611ff7576064830492506002015b600a83106106455760010192915050565b6001600160a01b03821661205e5760405162461bcd60e51b815260206004820181905260248201527f4552433732313a206d696e7420746f20746865207a65726f20616464726573736044820152606401610778565b6000818152600260205260409020546001600160a01b0316156120c35760405162461bcd60e51b815260206004820152601c60248201527f4552433732313a20746f6b656e20616c7265616479206d696e746564000000006044820152606401610778565b6000818152600260205260409020546001600160a01b0316156121285760405162461bcd60e51b815260206004820152601c60248201527f4552433732313a20746f6b656e20616c7265616479206d696e746564000000006044820152606401610778565b6001600160a01b038216600081815260036020908152604080832080546001019055848352600290915280822080546001600160a01b0319168417905551839291907fddf252ad1be2c89b69c2b068fc378daa952ba7f163c4a11628f55a4df523b3ef908290a45050565b6040518061010001604052806000815260200160006001600160a01b0316815260200160608152602001600080191681526020016000815260200160001515815260200160008152602001600081525090565b6001600160e01b03198116811461170857600080fd5b60006020828403121561220e57600080fd5b8135611c24816121e6565b60005b8381101561223457818101518382015260200161221c565b50506000910152565b60008151808452612255816020860160208601612219565b601f01601f19169290920160200192915050565b602081526000611c24602083018461223d565b60006020828403121561228e57600080fd5b5035919050565b80356001600160a01b038116811461168d57600080fd5b600080604083850312156122bf57600080fd5b6122c883612295565b946020939093013593505050565b600080600080606085870312156122ec57600080fd5b843567ffffffffffffffff8082111561230457600080fd5b818701915087601f83011261231857600080fd5b81358181111561232757600080fd5b88602082850101111561233957600080fd5b6020928301999098509187013596604001359550909350505050565b60008060006060848603121561236a57600080fd5b61237384612295565b925061238160208501612295565b9150604084013590509250925092565b600080604083850312156123a457600080fd5b823591506123b460208401612295565b90509250929050565b6000602082840312156123cf57600080fd5b611c2482612295565b600080604083850312156123eb57600080fd5b50508035926020909101359150565b6000806040838503121561240d57600080fd5b61241683612295565b91506020830135801515811461242b57600080fd5b809150509250929050565b6020808252825182820181905260009190848201906040850190845b8181101561246e57835183529284019291840191600101612452565b50909695505050505050565b8881526001600160a01b0388166020820152610100604082018190526000906124a58382018a61223d565b60608401989098525050608081019490945291151560a084015260c083015260e0909101529392505050565b634e487b7160e01b600052604160045260246000fd5b600080600080608085870312156124fd57600080fd5b61250685612295565b935061251460208601612295565b925060408501359150606085013567ffffffffffffffff8082111561253857600080fd5b818701915087601f83011261254c57600080fd5b81358181111561255e5761255e6124d1565b604051601f8201601f19908116603f01168101908382118183101715612586576125866124d1565b816040528281528a602084870101111561259f57600080fd5b82602086016020830137600060208483010152809550505050505092959194509250565b60006040808301604084528086518083526060925060608601915060608160051b8701016020808a0160005b8481101561267957898403605f19018652815180518552838101516001600160a01b031684860152888101516101008a8701819052906126318288018261223d565b838b0151888c01526080808501519089015260a08085015115159089015260c0808501519089015260e0938401519390970192909252505094820194908201906001016125ef565b50509690960196909652509295945050505050565b600080604083850312156126a157600080fd5b6126aa83612295565b91506123b460208401612295565b600181811c908216806126cc57607f821691505b6020821081036126ec57634e487b7160e01b600052602260045260246000fd5b50919050565b634e487b7160e01b600052601160045260246000fd5b60006001820161271a5761271a6126f2565b5060010190565b601f821115610819576000816000526020600020601f850160051c8101602086101561274a5750805b601f850160051c820191505b8181101561276957828155600101612756565b505050505050565b815167ffffffffffffffff81111561278b5761278b6124d1565b61279f8161279984546126b8565b84612721565b602080601f8311600181146127d457600084156127bc5750858301515b600019600386901b1c1916600185901b178555612769565b600085815260208120601f198616915b82811015612803578886015182559484019460019091019084016127e4565b50858210156128215787850151600019600388901b60f8161c191681555b5050505050600190811b01905550565b84815283602082015260606040820152816060820152818360808301376000818301608090810191909152601f909201601f191601019392505050565b6020808252602d908201527f4552433732313a2063616c6c6572206973206e6f7420746f6b656e206f776e6560408201526c1c881bdc88185c1c1c9bdd9959609a1b606082015260800190565b81810381811115610645576106456126f2565b600083516128e0818460208801612219565b8351908301906128f4818360208801612219565b01949350505050565b634e487b7160e01b600052603260045260246000fd5b80820180821115610645576106456126f2565b60208082526025908201527f4552433732313a207472616e736665722066726f6d20696e636f72726563742060408201526437bbb732b960d91b606082015260800190565b60208082526032908201527f4552433732313a207472616e7366657220746f206e6f6e20455243373231526560408201527131b2b4bb32b91034b6b83632b6b2b73a32b960711b606082015260800190565b6001600160a01b03858116825284166020820152604081018390526080606082018190526000906129f09083018461223d565b9695505050505050565b600060208284031215612a0c57600080fd5b8151611c24816121e656fea2646970667358221220b5684b34198aa2dd6f289569139317104310f1a1c2b03ab5a5a33874fe903c7964736f6c63430008180033",
  "linkReferences": {},
  "deployedLinkReferences": {}
}